{
  "contractName": "TasksContract",
  "abi": [
    {
      "inputs": [],
      "stateMutability": "nonpayable",
      "type": "constructor"
    },
    {
      "anonymous": false,
      "inputs": [
        {
          "indexed": false,
          "internalType": "uint256",
          "name": "id",
          "type": "uint256"
        },
        {
          "indexed": false,
          "internalType": "string",
          "name": "nombre",
          "type": "string"
        },
        {
          "indexed": false,
          "internalType": "string",
          "name": "apellido",
          "type": "string"
        },
        {
          "indexed": false,
          "internalType": "string",
          "name": "carrera",
          "type": "string"
        },
        {
          "indexed": false,
          "internalType": "uint256",
          "name": "fecha_nacimiento",
          "type": "uint256"
        },
        {
          "indexed": false,
          "internalType": "uint256",
          "name": "promedio",
          "type": "uint256"
        },
        {
          "indexed": false,
          "internalType": "bool",
          "name": "done",
          "type": "bool"
        },
        {
          "indexed": false,
          "internalType": "uint256",
          "name": "createdAt",
          "type": "uint256"
        }
      ],
      "name": "TaskCreated",
      "type": "event"
    },
    {
      "anonymous": false,
      "inputs": [
        {
          "indexed": false,
          "internalType": "uint256",
          "name": "id",
          "type": "uint256"
        },
        {
          "indexed": false,
          "internalType": "bool",
          "name": "done",
          "type": "bool"
        }
      ],
      "name": "TaskToggledDone",
      "type": "event"
    },
    {
      "inputs": [
        {
          "internalType": "uint256",
          "name": "",
          "type": "uint256"
        }
      ],
      "name": "tasks",
      "outputs": [
        {
          "internalType": "uint256",
          "name": "id",
          "type": "uint256"
        },
        {
          "internalType": "string",
          "name": "nombre",
          "type": "string"
        },
        {
          "internalType": "string",
          "name": "apellido",
          "type": "string"
        },
        {
          "internalType": "string",
          "name": "carrera",
          "type": "string"
        },
        {
          "internalType": "uint256",
          "name": "fecha_nacimiento",
          "type": "uint256"
        },
        {
          "internalType": "uint256",
          "name": "promedio",
          "type": "uint256"
        },
        {
          "internalType": "bool",
          "name": "done",
          "type": "bool"
        },
        {
          "internalType": "uint256",
          "name": "createdAt",
          "type": "uint256"
        }
      ],
      "stateMutability": "view",
      "type": "function",
      "constant": true
    },
    {
      "inputs": [],
      "name": "tasksCounter",
      "outputs": [
        {
          "internalType": "uint256",
          "name": "",
          "type": "uint256"
        }
      ],
      "stateMutability": "view",
      "type": "function",
      "constant": true
    },
    {
      "inputs": [
        {
          "internalType": "string",
          "name": "_nombre",
          "type": "string"
        },
        {
          "internalType": "string",
          "name": "_apellido",
          "type": "string"
        },
        {
          "internalType": "string",
          "name": "_carrera",
          "type": "string"
        },
        {
          "internalType": "uint256",
          "name": "_fecha_nacimiento",
          "type": "uint256"
        },
        {
          "internalType": "uint256",
          "name": "_promedio",
          "type": "uint256"
        }
      ],
      "name": "createTask",
      "outputs": [],
      "stateMutability": "nonpayable",
      "type": "function"
    },
    {
      "inputs": [
        {
          "internalType": "uint256",
          "name": "_id",
          "type": "uint256"
        }
      ],
      "name": "toggleDone",
      "outputs": [],
      "stateMutability": "nonpayable",
      "type": "function"
    }
  ],
  "bytecode": "0x6080604052600080553480156200001557600080fd5b50620000cd6040518060400160405280601081526020017f4d69207072696d6572206e6f6d627265000000000000000000000000000000008152506040518060400160405280601281526020017f4d69207072696d6572206170656c6c69646f00000000000000000000000000008152506040518060400160405280601281526020017f4d69207072696d657261206361727265726100000000000000000000000000008152506107d06007620000d360201b60201c565b62000760565b600080815480929190620000e7906200025c565b9190505550604051806101000160405280600054815260200186815260200185815260200184815260200183815260200182815260200160001515815260200142815250600160008054815260200190815260200160002060008201518160000155602082015181600101908162000160919062000519565b50604082015181600201908162000178919062000519565b50606082015181600301908162000190919062000519565b506080820151816004015560a0820151816005015560c08201518160060160006101000a81548160ff02191690831515021790555060e082015181600701559050507f78d9d4fa41aca590543f690f623c5cdc2d17f2e4e34c1fe483f943fcab1713bb600054868686868660004260405162000214989796959493929190620006bd565b60405180910390a15050505050565b7f4e487b7100000000000000000000000000000000000000000000000000000000600052601160045260246000fd5b6000819050919050565b6000620002698262000252565b91507fffffffffffffffffffffffffffffffffffffffffffffffffffffffffffffffff82036200029e576200029d62000223565b5b600182019050919050565b600081519050919050565b7f4e487b7100000000000000000000000000000000000000000000000000000000600052604160045260246000fd5b7f4e487b7100000000000000000000000000000000000000000000000000000000600052602260045260246000fd5b600060028204905060018216806200032b57607f821691505b602082108103620003415762000340620002e3565b5b50919050565b60008190508160005260206000209050919050565b60006020601f8301049050919050565b600082821b905092915050565b600060088302620003ab7fffffffffffffffffffffffffffffffffffffffffffffffffffffffffffffffff826200036c565b620003b786836200036c565b95508019841693508086168417925050509392505050565b6000819050919050565b6000620003fa620003f4620003ee8462000252565b620003cf565b62000252565b9050919050565b6000819050919050565b6200041683620003d9565b6200042e620004258262000401565b84845462000379565b825550505050565b600090565b6200044562000436565b620004528184846200040b565b505050565b5b818110156200047a576200046e6000826200043b565b60018101905062000458565b5050565b601f821115620004c957620004938162000347565b6200049e846200035c565b81016020851015620004ae578190505b620004c6620004bd856200035c565b83018262000457565b50505b505050565b600082821c905092915050565b6000620004ee60001984600802620004ce565b1980831691505092915050565b6000620005098383620004db565b9150826002028217905092915050565b6200052482620002a9565b67ffffffffffffffff81111562000540576200053f620002b4565b5b6200054c825462000312565b620005598282856200047e565b600060209050601f8311600181146200059157600084156200057c578287015190505b620005888582620004fb565b865550620005f8565b601f198416620005a18662000347565b60005b82811015620005cb57848901518255600182019150602085019450602081019050620005a4565b86831015620005eb5784890151620005e7601f891682620004db565b8355505b6001600288020188555050505b505050505050565b6200060b8162000252565b82525050565b600082825260208201905092915050565b60005b838110156200064257808201518184015260208101905062000625565b60008484015250505050565b6000601f19601f8301169050919050565b60006200066c82620002a9565b62000678818562000611565b93506200068a81856020860162000622565b62000695816200064e565b840191505092915050565b60008115159050919050565b620006b781620006a0565b82525050565b600061010082019050620006d5600083018b62000600565b8181036020830152620006e9818a6200065f565b90508181036040830152620006ff81896200065f565b905081810360608301526200071581886200065f565b905062000726608083018762000600565b6200073560a083018662000600565b6200074460c0830185620006ac565b6200075360e083018462000600565b9998505050505050505050565b610ec180620007706000396000f3fe608060405234801561001057600080fd5b506004361061004c5760003560e01c8063602a9f121461005157806385c3e7231461006d5780638d9776721461008b578063d81ef739146100c2575b600080fd5b61006b600480360381019061006691906108ba565b6100de565b005b610075610224565b6040516100829190610998565b60405180910390f35b6100a560048036038101906100a091906109b3565b61022a565b6040516100b9989796959493929190610a7a565b60405180910390f35b6100dc60048036038101906100d791906109b3565b610417565b005b6000808154809291906100f090610b3c565b919050555060405180610100016040528060005481526020018681526020018581526020018481526020018381526020018281526020016000151581526020014281525060016000805481526020019081526020016000206000820151816000015560208201518160010190816101679190610d90565b50604082015181600201908161017d9190610d90565b5060608201518160030190816101939190610d90565b506080820151816004015560a0820151816005015560c08201518160060160006101000a81548160ff02191690831515021790555060e082015181600701559050507f78d9d4fa41aca590543f690f623c5cdc2d17f2e4e34c1fe483f943fcab1713bb6000548686868686600042604051610215989796959493929190610a7a565b60405180910390a15050505050565b60005481565b600160205280600052604060002060009150905080600001549080600101805461025390610bb3565b80601f016020809104026020016040519081016040528092919081815260200182805461027f90610bb3565b80156102cc5780601f106102a1576101008083540402835291602001916102cc565b820191906000526020600020905b8154815290600101906020018083116102af57829003601f168201915b5050505050908060020180546102e190610bb3565b80601f016020809104026020016040519081016040528092919081815260200182805461030d90610bb3565b801561035a5780601f1061032f5761010080835404028352916020019161035a565b820191906000526020600020905b81548152906001019060200180831161033d57829003601f168201915b50505050509080600301805461036f90610bb3565b80601f016020809104026020016040519081016040528092919081815260200182805461039b90610bb3565b80156103e85780601f106103bd576101008083540402835291602001916103e8565b820191906000526020600020905b8154815290600101906020018083116103cb57829003601f168201915b5050505050908060040154908060050154908060060160009054906101000a900460ff16908060070154905088565b600060016000838152602001908152602001600020604051806101000160405290816000820154815260200160018201805461045290610bb3565b80601f016020809104026020016040519081016040528092919081815260200182805461047e90610bb3565b80156104cb5780601f106104a0576101008083540402835291602001916104cb565b820191906000526020600020905b8154815290600101906020018083116104ae57829003601f168201915b505050505081526020016002820180546104e490610bb3565b80601f016020809104026020016040519081016040528092919081815260200182805461051090610bb3565b801561055d5780601f106105325761010080835404028352916020019161055d565b820191906000526020600020905b81548152906001019060200180831161054057829003601f168201915b5050505050815260200160038201805461057690610bb3565b80601f01602080910402602001604051908101604052809291908181526020018280546105a290610bb3565b80156105ef5780601f106105c4576101008083540402835291602001916105ef565b820191906000526020600020905b8154815290600101906020018083116105d257829003601f168201915b5050505050815260200160048201548152602001600582015481526020016006820160009054906101000a900460ff1615151515815260200160078201548152505090508060c00151158160c0019015159081151581525050806001600084815260200190815260200160002060008201518160000155602082015181600101908161067b9190610d90565b5060408201518160020190816106919190610d90565b5060608201518160030190816106a79190610d90565b506080820151816004015560a0820151816005015560c08201518160060160006101000a81548160ff02191690831515021790555060e082015181600701559050507f3a359256e016dcfa8426ec503e08484999d6fcfb8c0f6084dc9e63374d838429828260c0015160405161071e929190610e62565b60405180910390a15050565b6000604051905090565b600080fd5b600080fd5b600080fd5b600080fd5b6000601f19601f8301169050919050565b7f4e487b7100000000000000000000000000000000000000000000000000000000600052604160045260246000fd5b61079182610748565b810181811067ffffffffffffffff821117156107b0576107af610759565b5b80604052505050565b60006107c361072a565b90506107cf8282610788565b919050565b600067ffffffffffffffff8211156107ef576107ee610759565b5b6107f882610748565b9050602081019050919050565b82818337600083830152505050565b6000610827610822846107d4565b6107b9565b90508281526020810184848401111561084357610842610743565b5b61084e848285610805565b509392505050565b600082601f83011261086b5761086a61073e565b5b813561087b848260208601610814565b91505092915050565b6000819050919050565b61089781610884565b81146108a257600080fd5b50565b6000813590506108b48161088e565b92915050565b600080600080600060a086880312156108d6576108d5610734565b5b600086013567ffffffffffffffff8111156108f4576108f3610739565b5b61090088828901610856565b955050602086013567ffffffffffffffff81111561092157610920610739565b5b61092d88828901610856565b945050604086013567ffffffffffffffff81111561094e5761094d610739565b5b61095a88828901610856565b935050606061096b888289016108a5565b925050608061097c888289016108a5565b9150509295509295909350565b61099281610884565b82525050565b60006020820190506109ad6000830184610989565b92915050565b6000602082840312156109c9576109c8610734565b5b60006109d7848285016108a5565b91505092915050565b600081519050919050565b600082825260208201905092915050565b60005b83811015610a1a5780820151818401526020810190506109ff565b60008484015250505050565b6000610a31826109e0565b610a3b81856109eb565b9350610a4b8185602086016109fc565b610a5481610748565b840191505092915050565b60008115159050919050565b610a7481610a5f565b82525050565b600061010082019050610a90600083018b610989565b8181036020830152610aa2818a610a26565b90508181036040830152610ab68189610a26565b90508181036060830152610aca8188610a26565b9050610ad96080830187610989565b610ae660a0830186610989565b610af360c0830185610a6b565b610b0060e0830184610989565b9998505050505050505050565b7f4e487b7100000000000000000000000000000000000000000000000000000000600052601160045260246000fd5b6000610b4782610884565b91507fffffffffffffffffffffffffffffffffffffffffffffffffffffffffffffffff8203610b7957610b78610b0d565b5b600182019050919050565b7f4e487b7100000000000000000000000000000000000000000000000000000000600052602260045260246000fd5b60006002820490506001821680610bcb57607f821691505b602082108103610bde57610bdd610b84565b5b50919050565b60008190508160005260206000209050919050565b60006020601f8301049050919050565b600082821b905092915050565b600060088302610c467fffffffffffffffffffffffffffffffffffffffffffffffffffffffffffffffff82610c09565b610c508683610c09565b95508019841693508086168417925050509392505050565b6000819050919050565b6000610c8d610c88610c8384610884565b610c68565b610884565b9050919050565b6000819050919050565b610ca783610c72565b610cbb610cb382610c94565b848454610c16565b825550505050565b600090565b610cd0610cc3565b610cdb818484610c9e565b505050565b5b81811015610cff57610cf4600082610cc8565b600181019050610ce1565b5050565b601f821115610d4457610d1581610be4565b610d1e84610bf9565b81016020851015610d2d578190505b610d41610d3985610bf9565b830182610ce0565b50505b505050565b600082821c905092915050565b6000610d6760001984600802610d49565b1980831691505092915050565b6000610d808383610d56565b9150826002028217905092915050565b610d99826109e0565b67ffffffffffffffff811115610db257610db1610759565b5b610dbc8254610bb3565b610dc7828285610d03565b600060209050601f831160018114610dfa5760008415610de8578287015190505b610df28582610d74565b865550610e5a565b601f198416610e0886610be4565b60005b82811015610e3057848901518255600182019150602085019450602081019050610e0b565b86831015610e4d5784890151610e49601f891682610d56565b8355505b6001600288020188555050505b505050505050565b6000604082019050610e776000830185610989565b610e846020830184610a6b565b939250505056fea2646970667358221220663558d59ad852727eabfcf3df84326e277182fdc7a345763ea982f277f44b4864736f6c63430008100033",
  "immutableReferences": {},
  "source": "// SPDX-License-Identifier: MIT\r\npragma solidity ^0.8.6;\r\n\r\ncontract TasksContract {\r\n    uint256 public tasksCounter = 0;\r\n\r\n    struct Task {\r\n        uint256 id;\r\n        string nombre;\r\n        string apellido;\r\n        string carrera;\r\n        uint256 fecha_nacimiento;\r\n        uint256 promedio;\r\n        bool done;\r\n        uint256 createdAt;\r\n    }\r\n\r\n     event TaskCreated(\r\n        uint256 id,\r\n        string nombre,\r\n        string apellido,\r\n        string carrera,\r\n        uint256 fecha_nacimiento,\r\n        uint256 promedio,\r\n        bool done,\r\n        uint256 createdAt\r\n    );\r\n    event TaskToggledDone(uint256 id, bool done);\r\n\r\n    mapping(uint256 => Task) public tasks;\r\n\r\n    constructor() {\r\n        createTask(\"Mi primer nombre\", \"Mi primer apellido\",\"Mi primera carrera\", 2000, 7);\r\n    }\r\n\r\n    function createTask (string memory _nombre, string memory _apellido, string memory _carrera, uint256 _fecha_nacimiento, uint256 _promedio) public {\r\n        tasksCounter++;\r\n        tasks[tasksCounter] = Task(\r\n            tasksCounter,\r\n            _nombre,\r\n            _apellido,\r\n            _carrera,\r\n            _fecha_nacimiento,\r\n            _promedio,\r\n            false,\r\n            block.timestamp\r\n        );\r\n\r\n        emit TaskCreated(\r\n            tasksCounter,\r\n            _nombre,\r\n            _apellido,\r\n            _carrera,\r\n            _fecha_nacimiento,\r\n            _promedio,\r\n            false,\r\n            block.timestamp\r\n        );\r\n     }\r\n\r\n    function toggleDone(uint256 _id) public {\r\n        Task memory _task = tasks[_id];\r\n        _task.done = !_task.done;\r\n        tasks[_id] = _task;\r\n        emit TaskToggledDone(_id, _task.done);\r\n    }\r\n}",
  "sourcePath": "C:\\Users\\perez\\Desktop\\Ejercicios\\BlockChain\\tareaBlockChain\\contracts\\TasksContract.sol",
  "compiler": {
    "name": "solc",
    "version": "0.8.16+commit.07a7930e.Emscripten.clang"
  },
  "schemaVersion": "3.4.13",
  "updatedAt": "2023-05-18T02:54:02.842Z",
  "networkType": "ethereum",
  "devdoc": {
    "kind": "dev",
    "methods": {},
    "version": 1
  },
  "userdoc": {
    "kind": "user",
    "methods": {},
    "version": 1
  }
}